000000000000000000SIAPEFITAESP00001UESB      042023                                                                                                                                                                                                                                                                                                                                                                                                                                                                                                                                                                                                                                                                                                                                               
000000001724445941BAFABRICIO DE SOUSA PINTO                                     8973463756813081030047FRAUCILIA DESIDERIO DE SOUSA PINTO                M1904198011310     1BA000000000000000000000000000RUA 8 DE MAIO                           107                        ALTO MARON               VITORIA DA CONQUISTA          45005056BA797004033     SSP  15122021BA000000000000000000                                                                                                                                                                                                                                                                                                                                                                                                      
000000001724445942BAEST01000000       104007595000009989063300000000000                   400015012011 0000000000000000701062E4091501202000000000   00000   0000000000000000000000000   00000   000000000000000000000000000000000001611501202000000000000000000001501202000000      000000000000015012020000000     00000000000000000000000         00000000                                        000000000000000         00000000               0000 000000000000000000000000         00000000   0000000000000000000000000000000000000000000000000000000000000000000000000 0                                                                        00000000000000000 00000000000000000000000000000000000000000000000000000000000         00000000000000000000000         SSSSSSSSSSSSSSSSSSSSS
000000001726403891BAGEORGE ALAN PAIXAO DE CARVALHO MIRAILTON                    9799929652012754869044OLGA PAIXAO DE CARVALHO MIRAILTON                 M0305198121208     1BA000000000000000000000000000AVENIDA B                               95                         PRIMAVERA                VITORIA DA CONQUISTA          45012900BA902493132     SSP  25042022BA000000000000000000                                                                                                                                                                                                                                                                                                                                                                                                      
000000001726403892BAEST01000000       104007595000009989063300000000000                   400015012011 0000000000000000701062E4091501202000000000   00000   0000000000000000000000000   00000   000000000000000000000000000000000001611501202000000000000000000001501202000000      000000000000015012020000000     00000000000000000000000         00000000                                        000000000000000         00000000               0000 000000000000000000000000         00000000   0000000000000000000000000000000000000000000000000000000000000000000000000 0                                                                        00000000000000000 00000000000000000000000000000000000000000000000000000000000         00000000000000000000000         SSSSSSSSSSSSSSSSSSSSS
000000001725650901BANAILTON GONCALVES ALVES                                     0198012756512906211046MARIA LUIZA GONCALVES DE OLIVEIRA                 M1005198620905     1BA000000000000000000000000000Rua CLAUDIA BOTELHO                     150                        PRIMAVERA                VITORIA DA CONQUISTA          45010012BA1295906651    SSP  02032015BA000000000000000000                                                                                                                                                                                                                                                                                                                                                                                                      
000000001725650902BAEST01000000       104007595000009989063300000000000                   400015012011 0000000000000000701062E4091501202000000000   00000   0000000000000000000000000   00000   000000000000000000000000000000000001611501202000000000000000000001501202000000      000000000000015012020000000     00000000000000000000000         00000000                                        000000000000000         00000000               0000 000000000000000000000000         00000000   0000000000000000000000000000000000000000000000000000000000000000000000000 0                                                                        00000000000000000 00000000000000000000000000000000000000000000000000000000000         00000000000000000000000         SSSSSSSSSSSSSSSSSSSSS
000000001725719381BATATIANA VIEIRA DOS SANTOS PAIVA                             0008959757512721154054MARINALVA VIEIRA DOS SANTOS PAIVA                 F1709198021310     1BA000000000000000000000000000RUA R                                   465                        FELICIA                  VITORIA DA CONQUISTA          45055370BA0650291786    SSP  20102015BA000000000000000000                                                                                                                                                                                                                                                                                                                                                                                                      
000000001725719382BAEST01000000       104007595000009989063300000000000                   400015012011 0000000000000000701062E4091501202000000000   00000   0000000000000000000000000   00000   000000000000000000000000000000000001611501202000000000000000000001501202000000      000000000000015012020000000     00000000000000000000000         00000000                                        000000000000000         00000000               0000 000000000000000000000000         00000000   0000000000000000000000000000000000000000000000000000000000000000000000000 0                                                                        00000000000000000 00000000000000000000000000000000000000000000000000000000000         00000000000000000000000         SSSSSSSSSSSSSSSSSSSSS
000000001724446581BAALLEN KRYSTHIANO SARAIVA FIGUEIREDO                         9700685853412645131087CLEUSMAR SARAIVA FIGUEIREDO                       M2204197921310     1BA000000000000000000000000000RUA ARARA AZUL                          301B                       FELICIA                  VITORIA DA CONQUISTA          45055754BA0823517756    SSP  13102000BA000000000000000000                                                                                                                                                                                                                                                                                                                                                                                                      
000000001724446582BAEST01000000       104007595000009989063300000000000                   400015012011 0000000000000000701062E4091501202000000000   00000   0000000000000000000000000   00000   000000000000000000000000000000000001611501202000000000000000000001501202000000      000000000000015012020000000     00000000000000000000000         00000000                                        000000000000000         00000000               0000 000000000000000000000000         00000000   0000000000000000000000000000000000000000000000000000000000000000000000000 0                                                                        00000000000000000 00000000000000000000000000000000000000000000000000000000000         00000000000000000000000         SSSSSSSSSSSSSSSSSSSSS
000000001723600531BAKERGILEDA AMBROSIO DE OLIVEIRA MATEUS                       5530455956818211124586MARIA DA GLORIA OLIVEIRA MATEUS                   F2307196911412     1BA000000000000000000000000000RUA ADELIA OLIVEIRA SAMPAIO             103                        QUINTAS DO MORUMBI       ITAPETINGA                    45700000BA495221244     SSP  20112020BA000000000000000000                                                                                                                                                                                                                                                                                                                                                                                                      
000000001723600532BAEST01000000       104007595000009989063300000000000                   400015012011 0000000000000000701062E4091501202000000000   00000   0000000000000000000000000   00000   000000000000000000000000000000000001611501202000000000000000000001501202000000      000000000000015012020000000     00000000000000000000000         00000000                                        000000000000000         00000000               0000 000000000000000000000000         00000000   0000000000000000000000000000000000000000000000000000000000000000000000000 0                                                                        00000000000000000 00000000000000000000000000000000000000000000000000000000000         00000000000000000000000         SSSSSSSSSSSSSSSSSSSSS
000000001920775031BARAFAELLA CANCIO PORTELA DE SOUSA                            0259390550621009343841ERCILIENE BATISTA PORTELA DE SOUSA                F2612198621208     1BA000000000000000000000000000Rua 1                                   1                          AGUA BRANCA              JEQUIE                        45206801BA1147304319    SSP  16052014BA000000000000000000                                                                                                                                                                                                                                                                                                                                                                                                      
000000001920775032BAEST01000000       104007595000009989063300000000000                   400015012011 0000000000000000701062E4091501202000000000   00000   0000000000000000000000000   00000   000000000000000000000000000000000001611501202000000000000000000001501202000000      000000000000015012020000000     00000000000000000000000         00000000                                        000000000000000         00000000               0000 000000000000000000000000         00000000   0000000000000000000000000000000000000000000000000000000000000000000000000 0                                                                        00000000000000000 00000000000000000000000000000000000000000000000000000000000         00000000000000000000000         SSSSSSSSSSSSSSSSSSSSS
000000001724920351BAVIVIAM SOUTO MIRANDA                                        0138807256420493862530VILMA SOUTO MIRANDA                               F3005198321006     1BA000000000000000000000000000RUA JOSE ALFREDO GUIMARAES              178                        SAO LUIZ                 JEQUIE                        45203330BA952808390     SSP  08042016BA000000000000000000                                                                                                                                                                                                                                                                                                                                                                                                      
000000001724920352BAEST01000000       104007595000009989063300000000000                   400015012011 0000000000000000701062E4091501202000000000   00000   0000000000000000000000000   00000   000000000000000000000000000000000001611501202000000000000000000001501202000000      000000000000015012020000000     00000000000000000000000         00000000                                        000000000000000         00000000               0000 000000000000000000000000         00000000   0000000000000000000000000000000000000000000000000000000000000000000000000 0                                                                        00000000000000000 00000000000000000000000000000000000000000000000000000000000         00000000000000000000000         SSSSSSSSSSSSSSSSSSSSS
000000001725222701BAMARTA LORENA LIMA BRITO                                     0207774250013045578054ZILDA SILVA LIMA                                  F0406198511208     1BA000000000000000000000000000Rua B                                   404                        VILA ERIKA               ITAPETINGA                    45700000BA0893511340    SSP  12052011BA000000000000000000                                                                                                                                                                                                                                                                                                                                                                                                      
000000001725222702BAEST01000000       104007595000009989063300000000000                   400015012011 0000000000000000701062E4091501202000000000   00000   0000000000000000000000000   00000   000000000000000000000000000000000001611501202000000000000000000001501202000000      000000000000015012020000000     00000000000000000000000         00000000                                        000000000000000         00000000               0000 000000000000000000000000         00000000   0000000000000000000000000000000000000000000000000000000000000000000000000 0                                                                        00000000000000000 00000000000000000000000000000000000000000000000000000000000         00000000000000000000000         SSSSSSSSSSSSSSSSSSSSS
000000001724121961BAMARIA DE CASSIA PASSOS BRANDAO GONCALVES                    4009363851512318951278JOSEFINA PASSOS BRANDAO                           F1605196721412     1BA000000000000000000000000000Rodovia Barragem de Pedra               199                        FAZENDA VELHA            JEQUIE                        45200180BA240129393     SSP  04032016BA000000000000000000                                                                                                                                                                                                                                                                                                                                                                                                      
000000001724121962BAEST01000000       104007595000009989063300000000000                   400015012011 0000000000000000701062E4091501202000000000   00000   0000000000000000000000000   00000   000000000000000000000000000000000001611501202000000000000000000001501202000000      000000000000015012020000000     00000000000000000000000         00000000                                        000000000000000         00000000               0000 000000000000000000000000         00000000   0000000000000000000000000000000000000000000000000000000000000000000000000 0                                                                        00000000000000000 00000000000000000000000000000000000000000000000000000000000         00000000000000000000000         SSSSSSSSSSSSSSSSSSSSS
000000001724853481BALUANDA LOPES BATISTA                                        0065197356212973922072ARNOBIA SANTOS LOPES                              F1403198221208     1BA000000000000000000000000000Rua H                                   80                         FELICIA                  VITORIA DA CONQUISTA          45055415BA0839019904    SSP  14032010BA000000000000000000                                                                                                                                                                                                                                                                                                                                                                                                      
000000001724853482BAEST01000000       104007595000009989063300000000000                   400015012011 0000000000000000701062E4091501202000000000   00000   0000000000000000000000000   00000   000000000000000000000000000000000001611501202000000000000000000001501202000000      000000000000015012020000000     00000000000000000000000         00000000                                        000000000000000         00000000               0000 000000000000000000000000         00000000   0000000000000000000000000000000000000000000000000000000000000000000000000 0                                                                        00000000000000000 00000000000000000000000000000000000000000000000000000000000         00000000000000000000000         SSSSSSSSSSSSSSSSSSSSS
000000001725288411BACYNTHIA SOUZA RODRIGUES                                     0181121050320984941759MARIA DA CONCEICAO SOUZA RODRIGUES                F0207198111006     1BA000000000000000000000000000AV BRASIL                               10                         CANDEIAS                 VITORIA DA CONQUISTA          45028265BA971021210     SSP  12022020BA000000000000000000                                                                                                                                                                                                                                                                                                                                                                                                      
000000001725288412BAEST01000000       104007595000009989063300000000000                   400015012011 0000000000000000701062E4091501202000000000   00000   0000000000000000000000000   00000   000000000000000000000000000000000001611501202000000000000000000001501202000000      000000000000015012020000000     00000000000000000000000         00000000                                        000000000000000         00000000               0000 000000000000000000000000         00000000   0000000000000000000000000000000000000000000000000000000000000000000000000 0                                                                        00000000000000000 00000000000000000000000000000000000000000000000000000000000         00000000000000000000000         SSSSSSSSSSSSSSSSSSSSS
000000001724131161BAROGERIO PINTO DE PAULA                                      0052376966012090018099NEYDE PINTO DE PAULA                              M2109196511006     1MG000000000000000000000000000AV VASCO DA GAMA                        225                        PRIMAVERA                ITAPETINGA                    45700000BA3279735       SSP  30062004MG000000000000000000                                                                                                                                                                                                                                                                                                                                                                                                      
000000001724131162BAEST01000000       104007595000009989063300000000000                   400015012011 0000000000000000701062E4091501202000000000   00000   0000000000000000000000000   00000   000000000000000000000000000000000001611501202000000000000000000001501202000000      000000000000015012020000000     00000000000000000000000         00000000                                        000000000000000         00000000               0000 000000000000000000000000         00000000   0000000000000000000000000000000000000000000000000000000000000000000000000 0                                                                        00000000000000000 00000000000000000000000000000000000000000000000000000000000         00000000000000000000000         SSSSSSSSSSSSSSSSSSSSS
000000001725450561BAFLAVIA CRISTINA BATISTA CAIRES                              5232983652018000431918MARIA BATISTA CAIRES                              F0611197221310     1PR000000000000000000000000000AV CHIARA LUBICH                        13                         BOA VISTA                VITORIA DA CONQUISTA          45026700BA403271835     SSPBA30012020BA000000000000000000                                                                                                                                                                                                                                                                                                                                                                                                      
000000001725450562BAEST01000000       104007595000009989063300000000000                   400015012011 0000000000000000701062E4091501202000000000   00000   0000000000000000000000000   00000   000000000000000000000000000000000001611501202000000000000000000001501202000000      000000000000015012020000000     00000000000000000000000         00000000                                        000000000000000         00000000               0000 000000000000000000000000         00000000   0000000000000000000000000000000000000000000000000000000000000000000000000 0                                                                        00000000000000000 00000000000000000000000000000000000000000000000000000000000         00000000000000000000000         SSSSSSSSSSSSSSSSSSSSS
000000001920725711BASAMILE CARDOSO DE OLIVEIRA                                  0364355859716535296602RITA DE CASSIA CARDOSO DE OLIVEIRA                F2002198911208     1BA000000000000000000000000000TRAVESSA CAPITAP OSCAR SA               50                         JOAQUIM ROMAO            JEQUIE                        45201041BA1327128730    SSP  16042019BA000000000000000000                                                                                                                                                                                                                                                                                                                                                                                                      
000000001920725712BAEST01000000       104007595000009989063300000000000                   400015012011 0000000000000000701062E4091501202000000000   00000   0000000000000000000000000   00000   000000000000000000000000000000000001611501202000000000000000000001501202000000      000000000000015012020000000     00000000000000000000000         00000000                                        000000000000000         00000000               0000 000000000000000000000000         00000000   0000000000000000000000000000000000000000000000000000000000000000000000000 0                                                                        00000000000000000 00000000000000000000000000000000000000000000000000000000000         00000000000000000000000         SSSSSSSSSSSSSSSSSSSSS
000000001723762931BAINES ANGELICA ANDRADE FREIRE                                2456400151512003022041MARIA ANTONIETA ANDRADE FREIRE                    F2101195911412     1BA000000000000000000000000000Caminho 01                              13A                        JEQUIZEINHO              JEQUIE                        45208589BA236481550     SSP  13082001BA000000000000000000                                                                                                                                                                                                                                                                                                                                                                                                      
000000001723762932BAEST01000000       104007595000009989063300000000000                   400015012011 0000000000000000701062E4091501202000000000   00000   0000000000000000000000000   00000   000000000000000000000000000000000001611501202000000000000000000001501202000000      000000000000015012020000000     00000000000000000000000         00000000                                        000000000000000         00000000               0000 000000000000000000000000         00000000   0000000000000000000000000000000000000000000000000000000000000000000000000 0                                                                        00000000000000000 00000000000000000000000000000000000000000000000000000000000         00000000000000000000000         SSSSSSSSSSSSSSSSSSSSS
000000001725288551BAVERANILZA BATISTA RIBEIRO                                   5251811659112395446159VITORIA BATISTA RIBEIRO                           F1502197041310     1BA000000000000000000000000000CAMINHO                                 18                         ZABELE                   VITORIA DA CONQUISTA          45077196BA0303937602    SSP  18102012BA000000000000000000                                                                                                                                                                                                                                                                                                                                                                                                      
000000001725288552BAEST01000000       104007595000009989063300000000000                   400015012011 0000000000000000701062E4091501202000000000   00000   0000000000000000000000000   00000   000000000000000000000000000000000001611501202000000000000000000001501202000000      000000000000015012020000000     00000000000000000000000         00000000                                        000000000000000         00000000               0000 000000000000000000000000         00000000   0000000000000000000000000000000000000000000000000000000000000000000000000 0                                                                        00000000000000000 00000000000000000000000000000000000000000000000000000000000         00000000000000000000000         SSSSSSSSSSSSSSSSSSSSS
000000001725658141BAILMA DA SILVA CONFESSOR CANDIDO                             0141879050813094165043IVONETE DA SILVA CONFESSOR CANDIDO                F0111198311208     1BA000000000000000000000000000AVENIDA ITABUNA                         3277A                      IBIRAPUERA               VITORIA DA CONQUISTA          45075195BA1264469624    SSP  27112018BA000000000000000000                                                                                                                                                                                                                                                                                                                                                                                                      
000000001725658142BAEST01000000       104007595000009989063300000000000                   400015012011 0000000000000000701062E4091501202000000000   00000   0000000000000000000000000   00000   000000000000000000000000000000000001611501202000000000000000000001501202000000      000000000000015012020000000     00000000000000000000000         00000000                                        000000000000000         00000000               0000 000000000000000000000000         00000000   0000000000000000000000000000000000000000000000000000000000000000000000000 0                                                                        00000000000000000 00000000000000000000000000000000000000000000000000000000000         00000000000000000000000         SSSSSSSSSSSSSSSSSSSSS
000000001724456131BAMARCIO LANUZI DUARTE LOUZADA                                8683783464917042815597MARIA NEIVE DUARTE LOUZADA                        M0910197341208     1BA000000000000000000000000000AVENIDA GENESIO PORTO                   614                        RECREIO                  VITORIA DA CONQUISTA          45020620BA0978493834    SSP  21032018BA000000000000000000                                                                                                                                                                                                                                                                                                                                                                                                      
000000001724456132BAEST01000000       104007595000009989063300000000000                   400015012011 0000000000000000701062E4091501202000000000   00000   0000000000000000000000000   00000   000000000000000000000000000000000001611501202000000000000000000001501202000000      000000000000015012020000000     00000000000000000000000         00000000                                        000000000000000         00000000               0000 000000000000000000000000         00000000   0000000000000000000000000000000000000000000000000000000000000000000000000 0                                                                        00000000000000000 00000000000000000000000000000000000000000000000000000000000         00000000000000000000000         SSSSSSSSSSSSSSSSSSSSS
000000001726372811BAJULIANA TEIXEIRA DE ASSUNCAO                                8276603750013180647271APARECIDA TEXIEIRA DE ASSUNCAO                    F2001198141208     1BA000000000000000000000000000Caminho 17                              25                         BATEIAS II               VITORIA DA CONQUISTA          45052152BA0872620379    SSP  20011981BA000000000000000000                                                                                                                                                                                                                                                                                                                                                                                                      
000000001726372812BAEST01000000       104007595000009989063300000000000                   400015012011 0000000000000000701062E4091501202000000000   00000   0000000000000000000000000   00000   000000000000000000000000000000000001611501202000000000000000000001501202000000      000000000000015012020000000     00000000000000000000000         00000000                                        000000000000000         00000000               0000 000000000000000000000000         00000000   0000000000000000000000000000000000000000000000000000000000000000000000000 0                                                                        00000000000000000 00000000000000000000000000000000000000000000000000000000000         00000000000000000000000         SSSSSSSSSSSSSSSSSSSSS
000000001724934851BAWILTEMBERG SILVA SANTOS                                     0155942255612764748053MARIZETE PAIVA SANTOS                             M0709198421208     1BA000000000000000000000000000RUA AFONSO PENA                         184                        CENTRO                   VITORIA DA CONQUISTA          45000840BA1114320226    SSP  13112015BA000000000000000000                                                                                                                                                                                                                                                                                                                                                                                                      
000000001724934852BAEST01000000       104007595000009989063300000000000                   400015012011 0000000000000000701062E4091501202000000000   00000   0000000000000000000000000   00000   000000000000000000000000000000000001611501202000000000000000000001501202000000      000000000000015012020000000     00000000000000000000000         00000000                                        000000000000000         00000000               0000 000000000000000000000000         00000000   0000000000000000000000000000000000000000000000000000000000000000000000000 0                                                                        00000000000000000 00000000000000000000000000000000000000000000000000000000000         00000000000000000000000         SSSSSSSSSSSSSSSSSSSSS
000000001725710411BATAMARA MARINHO DE OLIVEIRA FREITAS                          0526281758013083330080MARIA AMELIA JARDIM MARINHO                       F1302199111208     1BA000000000000000000000000000RUA ESPLANADA                           339                        FELICIA                  VITORIA DA CONQUISTA          45055270BA1207328235    SSP  10032021BA000000000000000000                                                                                                                                                                                                                                                                                                                                                                                                      
000000001725710412BAEST01000000       104007595000009989063300000000000                   400015012011 0000000000000000701062E4091501202000000000   00000   0000000000000000000000000   00000   000000000000000000000000000000000001611501202000000000000000000001501202000000      000000000000015012020000000     00000000000000000000000         00000000                                        000000000000000         00000000               0000 000000000000000000000000         00000000   0000000000000000000000000000000000000000000000000000000000000000000000000 0                                                                        00000000000000000 00000000000000000000000000000000000000000000000000000000000         00000000000000000000000         SSSSSSSSSSSSSSSSSSSSS
000000001724445731BAANA CAROLINA DE SOUZA DORIA                                 0074537954012881327089MARIANA PASSOS DE SOUZA                           F1209197911310     1BA000000000000000000000000000AV LAURA NUNES                          455                        BOA VISTA                VITORIA DA CONQUISTA          45026100BA771439067     SSP  03122012BA000000000000000000                                                                                                                                                                                                                                                                                                                                                                                                      
000000001724445732BAEST01000000       104007595000009989063300000000000                   400015012011 0000000000000000701062E4091501202000000000   00000   0000000000000000000000000   00000   000000000000000000000000000000000001611501202000000000000000000001501202000000      000000000000015012020000000     00000000000000000000000         00000000                                        000000000000000         00000000               0000 000000000000000000000000         00000000   0000000000000000000000000000000000000000000000000000000000000000000000000 0                                                                        00000000000000000 00000000000000000000000000000000000000000000000000000000000         00000000000000000000000         SSSSSSSSSSSSSSSSSSSSS
000000001723124991BAWESLEI GUSMAO PIAU SANTANA                                  5909252959112386188282EDIRCE GUSMAO PIAU SANTANA                        M0509197021412     1MG000000000000000000000000000RUA AUREO TOURINHO PECANHA              04                         CANDEIAS                 VITORIA DA CONQUISTA          45028670BA0302731709    SSP  03032022BA000000000000000000                                                                                                                                                                                                                                                                                                                                                                                                      
000000001723124992BAEST01000000       104007595000009989063300000000000                   400015012011 0000000000000000701062E4091501202000000000   00000   0000000000000000000000000   00000   000000000000000000000000000000000001611501202000000000000000000001501202000000      000000000000015012020000000     00000000000000000000000         00000000                                        000000000000000         00000000               0000 000000000000000000000000         00000000   0000000000000000000000000000000000000000000000000000000000000000000000000 0                                                                        00000000000000000 00000000000000000000000000000000000000000000000000000000000         00000000000000000000000         SSSSSSSSSSSSSSSSSSSSS
000000001724482651BARONALDO JOSE DE ASSIS SILVA JUNIOR                          0191719056512778385055MARIA DA PIEDADE GALVAO RODRIGUES SILVA           M0110198621310     1MA000000000000000000000000000AVENIDA ANEL DO CONRTONO                23                         PRIMAVERA                VITORIA DA CONQUISTA          45012445BA1112532501    SSP  15022018BA000000000000000000                                                                                                                                                                                                                                                                                                                                                                                                      
000000001724482652BAEST01000000       104007595000009989063300000000000                   400015012011 0000000000000000701062E4091501202000000000   00000   0000000000000000000000000   00000   000000000000000000000000000000000001611501202000000000000000000001501202000000      000000000000015012020000000     00000000000000000000000         00000000                                        000000000000000         00000000               0000 000000000000000000000000         00000000   0000000000000000000000000000000000000000000000000000000000000000000000000 0                                                                        00000000000000000 00000000000000000000000000000000000000000000000000000000000         00000000000000000000000         SSSSSSSSSSSSSSSSSSSSS
000000001725543251BACARINA SOARES SILVA MOREIRA                                 8008867850412654278087JANDIRA SOARES SILVA MOREIRA                      F2005197921006     1BA000000000000000000000000000AV SAO GERALDO                          1733                       ALTO MARON               VITORIA DA CONQUISTA          45005092BA0706009967    SSP  26062013BA000000000000000000                                                                                                                                                                                                                                                                                                                                                                                                      
000000001725543252BAEST01000000       104007595000009989063300000000000                   400015012011 0000000000000000701062E4091501202000000000   00000   0000000000000000000000000   00000   000000000000000000000000000000000001611501202000000000000000000001501202000000      000000000000015012020000000     00000000000000000000000         00000000                                        000000000000000         00000000               0000 000000000000000000000000         00000000   0000000000000000000000000000000000000000000000000000000000000000000000000 0                                                                        00000000000000000 00000000000000000000000000000000000000000000000000000000000         00000000000000000000000         SSSSSSSSSSSSSSSSSSSSS
000000001724912541BAELIZANE DE SOUZA TELES SILVA                                9521599952017068413747BELINDA FERREIRA DE SOUZA                         F2702197821310     1BA000000000000000000000000000RUA MIGUEL DE CERVANTES                 25                         BOA VISTA                VITORIA DA CONQUISTA          45026070BA717579964     SSP  24012014BA000000000000000000                                                                                                                                                                                                                                                                                                                                                                                                      
000000001724912542BAEST01000000       104007595000009989063300000000000                   400015012011 0000000000000000701062E4091501202000000000   00000   0000000000000000000000000   00000   000000000000000000000000000000000001611501202000000000000000000001501202000000      000000000000015012020000000     00000000000000000000000         00000000                                        000000000000000         00000000               0000 000000000000000000000000         00000000   0000000000000000000000000000000000000000000000000000000000000000000000000 0                                                                        00000000000000000 00000000000000000000000000000000000000000000000000000000000         00000000000000000000000         SSSSSSSSSSSSSSSSSSSSS
000000001724455801BALILIANA SOUZA AZEVEDO                                       0132657651811964107401LILIANA SOUZA AZEVEDO                             F2601198511208     1BA000000000000000000000000000RUA CLAUDIA BOTELHO                     670                        CANDEIAS                 VITORIA DA CONQUISTA          45028190BA0817825355    SSP  07032003BA000000000000000000                                                                                                                                                                                                                                                                                                                                                                                                      
000000001724455802BAEST01000000       104007595000009989063300000000000                   400015012011 0000000000000000701062E4091501202000000000   00000   0000000000000000000000000   00000   000000000000000000000000000000000001611501202000000000000000000001501202000000      000000000000015012020000000     00000000000000000000000         00000000                                        000000000000000         00000000               0000 000000000000000000000000         00000000   0000000000000000000000000000000000000000000000000000000000000000000000000 0                                                                        00000000000000000 00000000000000000000000000000000000000000000000000000000000         00000000000000000000000         SSSSSSSSSSSSSSSSSSSSS
000000001725745821BASAULO SOUSA SILVA                                           0175631956112772942084CLEUSA ROCHA DE SOUZA SILVA                       M1908198411006     1BA000000000000000000000000000RUA FERNANDO MATOS                      94                         CENTRO                   VITORIA DA CONQUISTA          45000550BA963045610     SSP  08072013BA000000000000000000                                                                                                                                                                                                                                                                                                                                                                                                      
000000001725745822BAEST01000000       104007595000009989063300000000000                   400015012011 0000000000000000701062E4091501202000000000   00000   0000000000000000000000000   00000   000000000000000000000000000000000001611501202000000000000000000001501202000000      000000000000015012020000000     00000000000000000000000         00000000                                        000000000000000         00000000               0000 000000000000000000000000         00000000   0000000000000000000000000000000000000000000000000000000000000000000000000 0                                                                        00000000000000000 00000000000000000000000000000000000000000000000000000000000         00000000000000000000000         SSSSSSSSSSSSSSSSSSSSS
000000001726372881BACLAUDIO MARCIO SILVA ROCHA                                  9239828656820631248964LAURITA ROSA DA SILVA                             M2103197911208     1SP000000000000000000000000000RUA B                                   200                        QUINTAS DO SUL           ITAPETINGA                    45700000BA0604192967    SSP  12122016BA000000000000000000                                                                                                                                                                                                                                                                                                                                                                                                      
000000001726372882BAEST01000000       104007595000009989063300000000000                   400015012011 0000000000000000701062E4091501202000000000   00000   0000000000000000000000000   00000   000000000000000000000000000000000001611501202000000000000000000001501202000000      000000000000015012020000000     00000000000000000000000         00000000                                        000000000000000         00000000               0000 000000000000000000000000         00000000   0000000000000000000000000000000000000000000000000000000000000000000000000 0                                                                        00000000000000000 00000000000000000000000000000000000000000000000000000000000         00000000000000000000000         SSSSSSSSSSSSSSSSSSSSS
000000001726372661BAJAMESON ABADE DOS SANTOS                                    0433381558416210917144ELIANE BITENCORTH SANTOS                          M2811199130905     1BA000000000000000000000000000RUA CARAVELAS                           96                         PATAGONIA                VITORIA DA CONQUISTA          45065590BA1528834950    SSP  04012011BA000000000000000000                                                                                                                                                                                                                                                                                                                                                                                                      
000000001726372662BAEST01000000       104007595000009989063300000000000                   400015012011 0000000000000000701062E4091501202000000000   00000   0000000000000000000000000   00000   000000000000000000000000000000000001611501202000000000000000000001501202000000      000000000000015012020000000     00000000000000000000000         00000000                                        000000000000000         00000000               0000 000000000000000000000000         00000000   0000000000000000000000000000000000000000000000000000000000000000000000000 0                                                                        00000000000000000 00000000000000000000000000000000000000000000000000000000000         00000000000000000000000         SSSSSSSSSSSSSSSSSSSSS
000000001726381121BAALINE MOREIRA FERRAZ DE ALMEIDA                             7788221058712786614068IVONETE ALVES MOREIRA DE ALMEIDA                  F1909197821310     1BA000000000000000000000000000RUA MANOEL JANUARIO DE ANDRADE          434                        RECREIO                  VITORIA DA CONQUISTA          45020540BA801605490     SSP  12062006BA000000000000000000                                                                                                                                                                                                                                                                                                                                                                                                      
000000001726381122BAEST01000000       104007595000009989063300000000000                   400015012011 0000000000000000701062E4091501202000000000   00000   0000000000000000000000000   00000   000000000000000000000000000000000001611501202000000000000000000001501202000000      000000000000015012020000000     00000000000000000000000         00000000                                        000000000000000         00000000               0000 000000000000000000000000         00000000   0000000000000000000000000000000000000000000000000000000000000000000000000 0                                                                        00000000000000000 00000000000000000000000000000000000000000000000000000000000         00000000000000000000000         SSSSSSSSSSSSSSSSSSSSS
000000001722803421BAGLEIDE MAGALI LEMOS PINHEIRO                                5286168655317059597008MARIA ZELIA LEMOS PINHEIRO                        F0507196911412     1BA000000000000000000000000000RUA ODILON T SANTOS                     127                        JEQUIEZINHO              JEQUIE                        45208433BA0441609303    SSP  02042018BA000000000000000000                                                                                                                                                                                                                                                                                                                                                                                                      
000000001722803422BAEST01000000       104007595000009989063300000000000                   400015012011 0000000000000000701062E4091501202000000000   00000   0000000000000000000000000   00000   000000000000000000000000000000000001611501202000000000000000000001501202000000      000000000000015012020000000     00000000000000000000000         00000000                                        000000000000000         00000000               0000 000000000000000000000000         00000000   0000000000000000000000000000000000000000000000000000000000000000000000000 0                                                                        00000000000000000 00000000000000000000000000000000000000000000000000000000000         00000000000000000000000         SSSSSSSSSSSSSSSSSSSSS
000000001723090721BAGENEROSA SOUSA RIBEIRO                                      6748468957217071729547EITA DE SOUSA SANTOS                              F0804197321412     1BA000000000000000000000000000RUA TELE SANTANA                        83                         BOA VISTA                VITORIA DA CONQUISTA          45026425BA0401472663    SSP  17031997BA000000000000000000                                                                                                                                                                                                                                                                                                                                                                                                      
000000001723090722BAEST01000000       104007595000009989063300000000000                   400015012011 0000000000000000701062E4091501202000000000   00000   0000000000000000000000000   00000   000000000000000000000000000000000001611501202000000000000000000001501202000000      000000000000015012020000000     00000000000000000000000         00000000                                        000000000000000         00000000               0000 000000000000000000000000         00000000   0000000000000000000000000000000000000000000000000000000000000000000000000 0                                                                        00000000000000000 00000000000000000000000000000000000000000000000000000000000         00000000000000000000000         SSSSSSSSSSSSSSSSSSSSS
000000001725423541BAJULIANA MENEZES DE MORAIS                                   9567086656812647981088ELIENE MENEZES DE MORAIS                          F2003197741208     1PE000000000000000000000000000RUA PAULO FILADELFO                     1667                       CANDEIAS                 VITORIA DA CONQUISta          45028355BA0750413085    SSP  19042011BA000000000000000000                                                                                                                                                                                                                                                                                                                                                                                                      
000000001725423542BAEST01000000       104007595000009989063300000000000                   400015012011 0000000000000000701062E4091501202000000000   00000   0000000000000000000000000   00000   000000000000000000000000000000000001611501202000000000000000000001501202000000      000000000000015012020000000     00000000000000000000000         00000000                                        000000000000000         00000000               0000 000000000000000000000000         00000000   0000000000000000000000000000000000000000000000000000000000000000000000000 0                                                                        00000000000000000 00000000000000000000000000000000000000000000000000000000000         00000000000000000000000         SSSSSSSSSSSSSSSSSSSSS
999999999999999999000000002                                                                                                                                                                                                                                                                                                                                                                                                                                                                                                                                                                                                                                                                                                                                                                       
