000000000000000000SIAPEFITAESP00001UFRN      112023                                                                                                                                                                                                                                                                                                                                                                                                                                                                                                                                                                                                                                                                                                                                               
000000007724445941RNFABRICIO DE SOUSA PINTO                                     8973463756813081030047FRAUCILIA DESIDERIO DE SOUSA PINTO                M1904198011310     1BA000000000000000000000000000RUA 8 DE MAIO                           107                        ALTO MARON               VITORIA DA CONQUISTA          45005056BA797004033     SSP  15122021BA000000000000000000                                                                                                                                                                                                                                                                                                                                                                                                      
000000007724445942RNEST01000000       104007595000009989063300000000000                   400015012011 0000000000000000701062E4091501202000000000   00000   0000000000000000000000000   00000   000000000000000000000000000000000001611501202000000000000000000001501202000000      000000000000015012020000000     00000000000000000000000         00000000                                        000000000000000         00000000               0000 000000000000000000000000         00000000   0000000000000000000000000000000000000000000000000000000000000000000000000 0                                                                        00000000000000000 00000000000000000000000000000000000000000000000000000000000         00000000000000000000000         SSSSSSSSSSSSSSSSSSSSS
000000007726403891RNGEORGE ALAN PAIXAO DE CARVALHO MIRAILTON                    9799929652012754869044OLGA PAIXAO DE CARVALHO MIRAILTON                 M0305198121208     1BA000000000000000000000000000AVENIDA B                               95                         PRIMAVERA                VITORIA DA CONQUISTA          45012900BA902493132     SSP  25042022BA000000000000000000                                                                                                                                                                                                                                                                                                                                                                                                      
000000007726403892RNEST01000000       104007595000009989063300000000000                   400015012011 0000000000000000701062E4091501202000000000   00000   0000000000000000000000000   00000   000000000000000000000000000000000001611501202000000000000000000001501202000000      000000000000015012020000000     00000000000000000000000         00000000                                        000000000000000         00000000               0000 000000000000000000000000         00000000   0000000000000000000000000000000000000000000000000000000000000000000000000 0                                                                        00000000000000000 00000000000000000000000000000000000000000000000000000000000         00000000000000000000000         SSSSSSSSSSSSSSSSSSSSS
000000007725650901RNNAILTON GONCALVES ALVES                                     0198012756512906211046MARIA LUIZA GONCALVES DE OLIVEIRA                 M1005198620905     1BA000000000000000000000000000Rua CLAUDIA BOTELHO                     150                        PRIMAVERA                VITORIA DA CONQUISTA          45010012BA1295906651    SSP  02032015BA000000000000000000                                                                                                                                                                                                                                                                                                                                                                                                      
000000007725650902RNEST01000000       104007595000009989063300000000000                   400015012011 0000000000000000701062E4091501202000000000   00000   0000000000000000000000000   00000   000000000000000000000000000000000001611501202000000000000000000001501202000000      000000000000015012020000000     00000000000000000000000         00000000                                        000000000000000         00000000               0000 000000000000000000000000         00000000   0000000000000000000000000000000000000000000000000000000000000000000000000 0                                                                        00000000000000000 00000000000000000000000000000000000000000000000000000000000         00000000000000000000000         SSSSSSSSSSSSSSSSSSSSS
000000007725719381RNTATIANA VIEIRA DOS SANTOS PAIVA                             0008959757512721154054MARINALVA VIEIRA DOS SANTOS PAIVA                 F1709198021310     1BA000000000000000000000000000RUA R                                   465                        FELICIA                  VITORIA DA CONQUISTA          45055370BA0650291786    SSP  20102015BA000000000000000000                                                                                                                                                                                                                                                                                                                                                                                                      
000000007725719382RNEST01000000       104007595000009989063300000000000                   400015012011 0000000000000000701062E4091501202000000000   00000   0000000000000000000000000   00000   000000000000000000000000000000000001611501202000000000000000000001501202000000      000000000000015012020000000     00000000000000000000000         00000000                                        000000000000000         00000000               0000 000000000000000000000000         00000000   0000000000000000000000000000000000000000000000000000000000000000000000000 0                                                                        00000000000000000 00000000000000000000000000000000000000000000000000000000000         00000000000000000000000         SSSSSSSSSSSSSSSSSSSSS
000000007724446581RNALLEN KRYSTHIANO SARAIVA FIGUEIREDO                         9700685853412645131087CLEUSMAR SARAIVA FIGUEIREDO                       M2204197921310     1BA000000000000000000000000000RUA ARARA AZUL                          301B                       FELICIA                  VITORIA DA CONQUISTA          45055754BA0823517756    SSP  13102000BA000000000000000000                                                                                                                                                                                                                                                                                                                                                                                                      
000000007724446582RNEST01000000       104007595000009989063300000000000                   400015012011 0000000000000000701062E4091501202000000000   00000   0000000000000000000000000   00000   000000000000000000000000000000000001611501202000000000000000000001501202000000      000000000000015012020000000     00000000000000000000000         00000000                                        000000000000000         00000000               0000 000000000000000000000000         00000000   0000000000000000000000000000000000000000000000000000000000000000000000000 0                                                                        00000000000000000 00000000000000000000000000000000000000000000000000000000000         00000000000000000000000         SSSSSSSSSSSSSSSSSSSSS
000000007723600531RNKERGILEDA AMBROSIO DE OLIVEIRA MATEUS                       5530455956818211124586MARIA DA GLORIA OLIVEIRA MATEUS                   F2307196911412     1BA000000000000000000000000000RUA ADELIA OLIVEIRA SAMPAIO             103                        QUINTAS DO MORUMBI       ITAPETINGA                    45700000BA495221244     SSP  20112020BA000000000000000000                                                                                                                                                                                                                                                                                                                                                                                                      
000000007723600532RNEST01000000       104007595000009989063300000000000                   400015012011 0000000000000000701062E4091501202000000000   00000   0000000000000000000000000   00000   000000000000000000000000000000000001611501202000000000000000000001501202000000      000000000000015012020000000     00000000000000000000000         00000000                                        000000000000000         00000000               0000 000000000000000000000000         00000000   0000000000000000000000000000000000000000000000000000000000000000000000000 0                                                                        00000000000000000 00000000000000000000000000000000000000000000000000000000000         00000000000000000000000         SSSSSSSSSSSSSSSSSSSSS
000000007920775031RNRAFAELLA CANCIO PORTELA DE SOUSA                            0259390550621009343841ERCILIENE BATISTA PORTELA DE SOUSA                F2612198621208     1BA000000000000000000000000000Rua 1                                   1                          AGUA BRANCA              JEQUIE                        45206801BA1147304319    SSP  16052014BA000000000000000000                                                                                                                                                                                                                                                                                                                                                                                                      
000000007920775032RNEST01000000       104007595000009989063300000000000                   400015012011 0000000000000000701062E4091501202000000000   00000   0000000000000000000000000   00000   000000000000000000000000000000000001611501202000000000000000000001501202000000      000000000000015012020000000     00000000000000000000000         00000000                                        000000000000000         00000000               0000 000000000000000000000000         00000000   0000000000000000000000000000000000000000000000000000000000000000000000000 0                                                                        00000000000000000 00000000000000000000000000000000000000000000000000000000000         00000000000000000000000         SSSSSSSSSSSSSSSSSSSSS
000000007724920351RNVIVIAM SOUTO MIRANDA                                        0138807256420493862530VILMA SOUTO MIRANDA                               F3005198321006     1BA000000000000000000000000000RUA JOSE ALFREDO GUIMARAES              178                        SAO LUIZ                 JEQUIE                        45203330BA952808390     SSP  08042016BA000000000000000000                                                                                                                                                                                                                                                                                                                                                                                                      
000000007724920352RNEST01000000       104007595000009989063300000000000                   400015012011 0000000000000000701062E4091501202000000000   00000   0000000000000000000000000   00000   000000000000000000000000000000000001611501202000000000000000000001501202000000      000000000000015012020000000     00000000000000000000000         00000000                                        000000000000000         00000000               0000 000000000000000000000000         00000000   0000000000000000000000000000000000000000000000000000000000000000000000000 0                                                                        00000000000000000 00000000000000000000000000000000000000000000000000000000000         00000000000000000000000         SSSSSSSSSSSSSSSSSSSSS
000000007725222701RNMARTA LORENA LIMA BRITO                                     0207774250013045578054ZILDA SILVA LIMA                                  F0406198511208     1BA000000000000000000000000000Rua B                                   404                        VILA ERIKA               ITAPETINGA                    45700000BA0893511340    SSP  12052011BA000000000000000000                                                                                                                                                                                                                                                                                                                                                                                                      
000000007725222702RNEST01000000       104007595000009989063300000000000                   400015012011 0000000000000000701062E4091501202000000000   00000   0000000000000000000000000   00000   000000000000000000000000000000000001611501202000000000000000000001501202000000      000000000000015012020000000     00000000000000000000000         00000000                                        000000000000000         00000000               0000 000000000000000000000000         00000000   0000000000000000000000000000000000000000000000000000000000000000000000000 0                                                                        00000000000000000 00000000000000000000000000000000000000000000000000000000000         00000000000000000000000         SSSSSSSSSSSSSSSSSSSSS
000000007724121961RNMARIA DE CASSIA PASSOS BRANDAO GONCALVES                    4009363851512318951278JOSEFINA PASSOS BRANDAO                           F1605196721412     1BA000000000000000000000000000Rodovia Barragem de Pedra               199                        FAZENDA VELHA            JEQUIE                        45200180BA240129393     SSP  04032016BA000000000000000000                                                                                                                                                                                                                                                                                                                                                                                                      
000000007724121962RNEST01000000       104007595000009989063300000000000                   400015012011 0000000000000000701062E4091501202000000000   00000   0000000000000000000000000   00000   000000000000000000000000000000000001611501202000000000000000000001501202000000      000000000000015012020000000     00000000000000000000000         00000000                                        000000000000000         00000000               0000 000000000000000000000000         00000000   0000000000000000000000000000000000000000000000000000000000000000000000000 0                                                                        00000000000000000 00000000000000000000000000000000000000000000000000000000000         00000000000000000000000         SSSSSSSSSSSSSSSSSSSSS
000000007724853481RNLUANDA LOPES BATISTA                                        0065197356212973922072ARNOBIA SANTOS LOPES                              F1403198221208     1BA000000000000000000000000000Rua H                                   80                         FELICIA                  VITORIA DA CONQUISTA          45055415BA0839019904    SSP  14032010BA000000000000000000                                                                                                                                                                                                                                                                                                                                                                                                      
000000007724853482RNEST01000000       104007595000009989063300000000000                   400015012011 0000000000000000701062E4091501202000000000   00000   0000000000000000000000000   00000   000000000000000000000000000000000001611501202000000000000000000001501202000000      000000000000015012020000000     00000000000000000000000         00000000                                        000000000000000         00000000               0000 000000000000000000000000         00000000   0000000000000000000000000000000000000000000000000000000000000000000000000 0                                                                        00000000000000000 00000000000000000000000000000000000000000000000000000000000         00000000000000000000000         SSSSSSSSSSSSSSSSSSSSS
000000007725288411RNCYNTHIA SOUZA RODRIGUES                                     0181121050320984941759MARIA DA CONCEICAO SOUZA RODRIGUES                F0207198111006     1BA000000000000000000000000000AV BRASIL                               10                         CANDEIAS                 VITORIA DA CONQUISTA          45028265BA971021210     SSP  12022020BA000000000000000000                                                                                                                                                                                                                                                                                                                                                                                                      
000000007725288412RNEST01000000       104007595000009989063300000000000                   400015012011 0000000000000000701062E4091501202000000000   00000   0000000000000000000000000   00000   000000000000000000000000000000000001611501202000000000000000000001501202000000      000000000000015012020000000     00000000000000000000000         00000000                                        000000000000000         00000000               0000 000000000000000000000000         00000000   0000000000000000000000000000000000000000000000000000000000000000000000000 0                                                                        00000000000000000 00000000000000000000000000000000000000000000000000000000000         00000000000000000000000         SSSSSSSSSSSSSSSSSSSSS
000000007724131161RNROGERIO PINTO DE PAULA                                      0052376966012090018099NEYDE PINTO DE PAULA                              M2109196511006     1MG000000000000000000000000000AV VASCO DA GAMA                        225                        PRIMAVERA                ITAPETINGA                    45700000BA3279735       SSP  30062004MG000000000000000000                                                                                                                                                                                                                                                                                                                                                                                                      
000000007724131162RNEST01000000       104007595000009989063300000000000                   400015012011 0000000000000000701062E4091501202000000000   00000   0000000000000000000000000   00000   000000000000000000000000000000000001611501202000000000000000000001501202000000      000000000000015012020000000     00000000000000000000000         00000000                                        000000000000000         00000000               0000 000000000000000000000000         00000000   0000000000000000000000000000000000000000000000000000000000000000000000000 0                                                                        00000000000000000 00000000000000000000000000000000000000000000000000000000000         00000000000000000000000         SSSSSSSSSSSSSSSSSSSSS
000000007725450561RNFLAVIA CRISTINA BATISTA CAIRES                              5232983652018000431918MARIA BATISTA CAIRES                              F0611197221310     1PR000000000000000000000000000AV CHIARA LUBICH                        13                         BOA VISTA                VITORIA DA CONQUISTA          45026700BA403271835     SSPBA30012020BA000000000000000000                                                                                                                                                                                                                                                                                                                                                                                                      
000000007725450562RNEST01000000       104007595000009989063300000000000                   400015012011 0000000000000000701062E4091501202000000000   00000   0000000000000000000000000   00000   000000000000000000000000000000000001611501202000000000000000000001501202000000      000000000000015012020000000     00000000000000000000000         00000000                                        000000000000000         00000000               0000 000000000000000000000000         00000000   0000000000000000000000000000000000000000000000000000000000000000000000000 0                                                                        00000000000000000 00000000000000000000000000000000000000000000000000000000000         00000000000000000000000         SSSSSSSSSSSSSSSSSSSSS
000000007920725711RNSAMILE CARDOSO DE OLIVEIRA                                  0364355859716535296602RITA DE CASSIA CARDOSO DE OLIVEIRA                F2002198911208     1BA000000000000000000000000000TRAVESSA CAPITAP OSCAR SA               50                         JOAQUIM ROMAO            JEQUIE                        45201041BA1327128730    SSP  16042019BA000000000000000000                                                                                                                                                                                                                                                                                                                                                                                                      
000000007920725712RNEST01000000       104007595000009989063300000000000                   400015012011 0000000000000000701062E4091501202000000000   00000   0000000000000000000000000   00000   000000000000000000000000000000000001611501202000000000000000000001501202000000      000000000000015012020000000     00000000000000000000000         00000000                                        000000000000000         00000000               0000 000000000000000000000000         00000000   0000000000000000000000000000000000000000000000000000000000000000000000000 0                                                                        00000000000000000 00000000000000000000000000000000000000000000000000000000000         00000000000000000000000         SSSSSSSSSSSSSSSSSSSSS
000000007723762931RNINES ANGELICA ANDRADE FREIRE                                2456400151512003022041MARIA ANTONIETA ANDRADE FREIRE                    F2101195911412     1BA000000000000000000000000000Caminho 01                              13A                        JEQUIZEINHO              JEQUIE                        45208589BA236481550     SSP  13082001BA000000000000000000                                                                                                                                                                                                                                                                                                                                                                                                      
000000007723762932RNEST01000000       104007595000009989063300000000000                   400015012011 0000000000000000701062E4091501202000000000   00000   0000000000000000000000000   00000   000000000000000000000000000000000001611501202000000000000000000001501202000000      000000000000015012020000000     00000000000000000000000         00000000                                        000000000000000         00000000               0000 000000000000000000000000         00000000   0000000000000000000000000000000000000000000000000000000000000000000000000 0                                                                        00000000000000000 00000000000000000000000000000000000000000000000000000000000         00000000000000000000000         SSSSSSSSSSSSSSSSSSSSS
000000007725288551RNVERANILZA BATISTA RIBEIRO                                   5251811659112395446159VITORIA BATISTA RIBEIRO                           F1502197041310     1BA000000000000000000000000000CAMINHO                                 18                         ZABELE                   VITORIA DA CONQUISTA          45077196BA0303937602    SSP  18102012BA000000000000000000                                                                                                                                                                                                                                                                                                                                                                                                      
000000007725288552RNEST01000000       104007595000009989063300000000000                   400015012011 0000000000000000701062E4091501202000000000   00000   0000000000000000000000000   00000   000000000000000000000000000000000001611501202000000000000000000001501202000000      000000000000015012020000000     00000000000000000000000         00000000                                        000000000000000         00000000               0000 000000000000000000000000         00000000   0000000000000000000000000000000000000000000000000000000000000000000000000 0                                                                        00000000000000000 00000000000000000000000000000000000000000000000000000000000         00000000000000000000000         SSSSSSSSSSSSSSSSSSSSS
000000007725658141RNILMA DA SILVA CONFESSOR CANDIDO                             0141879050813094165043IVONETE DA SILVA CONFESSOR CANDIDO                F0111198311208     1BA000000000000000000000000000AVENIDA ITABUNA                         3277A                      IBIRAPUERA               VITORIA DA CONQUISTA          45075195BA1264469624    SSP  27112018BA000000000000000000                                                                                                                                                                                                                                                                                                                                                                                                      
000000007725658142RNEST01000000       104007595000009989063300000000000                   400015012011 0000000000000000701062E4091501202000000000   00000   0000000000000000000000000   00000   000000000000000000000000000000000001611501202000000000000000000001501202000000      000000000000015012020000000     00000000000000000000000         00000000                                        000000000000000         00000000               0000 000000000000000000000000         00000000   0000000000000000000000000000000000000000000000000000000000000000000000000 0                                                                        00000000000000000 00000000000000000000000000000000000000000000000000000000000         00000000000000000000000         SSSSSSSSSSSSSSSSSSSSS
000000007724456131RNMARCIO LANUZI DUARTE LOUZADA                                8683783464917042815597MARIA NEIVE DUARTE LOUZADA                        M0910197341208     1BA000000000000000000000000000AVENIDA GENESIO PORTO                   614                        RECREIO                  VITORIA DA CONQUISTA          45020620BA0978493834    SSP  21032018BA000000000000000000                                                                                                                                                                                                                                                                                                                                                                                                      
000000007724456132RNEST01000000       104007595000009989063300000000000                   400015012011 0000000000000000701062E4091501202000000000   00000   0000000000000000000000000   00000   000000000000000000000000000000000001611501202000000000000000000001501202000000      000000000000015012020000000     00000000000000000000000         00000000                                        000000000000000         00000000               0000 000000000000000000000000         00000000   0000000000000000000000000000000000000000000000000000000000000000000000000 0                                                                        00000000000000000 00000000000000000000000000000000000000000000000000000000000         00000000000000000000000         SSSSSSSSSSSSSSSSSSSSS
000000007726372811RNJULIANA TEIXEIRA DE ASSUNCAO                                8276603750013180647271APARECIDA TEXIEIRA DE ASSUNCAO                    F2001198141208     1BA000000000000000000000000000Caminho 17                              25                         BATEIAS II               VITORIA DA CONQUISTA          45052152BA0872620379    SSP  20011981BA000000000000000000                                                                                                                                                                                                                                                                                                                                                                                                      
000000007726372812RNEST01000000       104007595000009989063300000000000                   400015012011 0000000000000000701062E4091501202000000000   00000   0000000000000000000000000   00000   000000000000000000000000000000000001611501202000000000000000000001501202000000      000000000000015012020000000     00000000000000000000000         00000000                                        000000000000000         00000000               0000 000000000000000000000000         00000000   0000000000000000000000000000000000000000000000000000000000000000000000000 0                                                                        00000000000000000 00000000000000000000000000000000000000000000000000000000000         00000000000000000000000         SSSSSSSSSSSSSSSSSSSSS
000000007724934851RNWILTEMBERG SILVA SANTOS                                     0155942255612764748053MARIZETE PAIVA SANTOS                             M0709198421208     1BA000000000000000000000000000RUA AFONSO PENA                         184                        CENTRO                   VITORIA DA CONQUISTA          45000840BA1114320226    SSP  13112015BA000000000000000000                                                                                                                                                                                                                                                                                                                                                                                                      
000000007724934852RNEST01000000       104007595000009989063300000000000                   400015012011 0000000000000000701062E4091501202000000000   00000   0000000000000000000000000   00000   000000000000000000000000000000000001611501202000000000000000000001501202000000      000000000000015012020000000     00000000000000000000000         00000000                                        000000000000000         00000000               0000 000000000000000000000000         00000000   0000000000000000000000000000000000000000000000000000000000000000000000000 0                                                                        00000000000000000 00000000000000000000000000000000000000000000000000000000000         00000000000000000000000         SSSSSSSSSSSSSSSSSSSSS
000000007725710411RNTAMARA MARINHO DE OLIVEIRA FREITAS                          0526281758013083330080MARIA AMELIA JARDIM MARINHO                       F1302199111208     1BA000000000000000000000000000RUA ESPLANADA                           339                        FELICIA                  VITORIA DA CONQUISTA          45055270BA1207328235    SSP  10032021BA000000000000000000                                                                                                                                                                                                                                                                                                                                                                                                      
000000007725710412RNEST01000000       104007595000009989063300000000000                   400015012011 0000000000000000701062E4091501202000000000   00000   0000000000000000000000000   00000   000000000000000000000000000000000001611501202000000000000000000001501202000000      000000000000015012020000000     00000000000000000000000         00000000                                        000000000000000         00000000               0000 000000000000000000000000         00000000   0000000000000000000000000000000000000000000000000000000000000000000000000 0                                                                        00000000000000000 00000000000000000000000000000000000000000000000000000000000         00000000000000000000000         SSSSSSSSSSSSSSSSSSSSS
000000007724445731RNANA CAROLINA DE SOUZA DORIA                                 0074537954012881327089MARIANA PASSOS DE SOUZA                           F1209197911310     1BA000000000000000000000000000AV LAURA NUNES                          455                        BOA VISTA                VITORIA DA CONQUISTA          45026100BA771439067     SSP  03122012BA000000000000000000                                                                                                                                                                                                                                                                                                                                                                                                      
000000007724445732RNEST01000000       104007595000009989063300000000000                   400015012011 0000000000000000701062E4091501202000000000   00000   0000000000000000000000000   00000   000000000000000000000000000000000001611501202000000000000000000001501202000000      000000000000015012020000000     00000000000000000000000         00000000                                        000000000000000         00000000               0000 000000000000000000000000         00000000   0000000000000000000000000000000000000000000000000000000000000000000000000 0                                                                        00000000000000000 00000000000000000000000000000000000000000000000000000000000         00000000000000000000000         SSSSSSSSSSSSSSSSSSSSS
000000007723124991RNWESLEI GUSMAO PIAU SANTANA                                  5909252959112386188282EDIRCE GUSMAO PIAU SANTANA                        M0509197021412     1MG000000000000000000000000000RUA AUREO TOURINHO PECANHA              04                         CANDEIAS                 VITORIA DA CONQUISTA          45028670BA0302731709    SSP  03032022BA000000000000000000                                                                                                                                                                                                                                                                                                                                                                                                      
000000007723124992RNEST01000000       104007595000009989063300000000000                   400015012011 0000000000000000701062E4091501202000000000   00000   0000000000000000000000000   00000   000000000000000000000000000000000001611501202000000000000000000001501202000000      000000000000015012020000000     00000000000000000000000         00000000                                        000000000000000         00000000               0000 000000000000000000000000         00000000   0000000000000000000000000000000000000000000000000000000000000000000000000 0                                                                        00000000000000000 00000000000000000000000000000000000000000000000000000000000         00000000000000000000000         SSSSSSSSSSSSSSSSSSSSS
000000007724482651RNRONALDO JOSE DE ASSIS SILVA JUNIOR                          0191719056512778385055MARIA DA PIEDADE GALVAO RODRIGUES SILVA           M0110198621310     1MA000000000000000000000000000AVENIDA ANEL DO CONRTONO                23                         PRIMAVERA                VITORIA DA CONQUISTA          45012445BA1112532501    SSP  15022018BA000000000000000000                                                                                                                                                                                                                                                                                                                                                                                                      
000000007724482652RNEST01000000       104007595000009989063300000000000                   400015012011 0000000000000000701062E4091501202000000000   00000   0000000000000000000000000   00000   000000000000000000000000000000000001611501202000000000000000000001501202000000      000000000000015012020000000     00000000000000000000000         00000000                                        000000000000000         00000000               0000 000000000000000000000000         00000000   0000000000000000000000000000000000000000000000000000000000000000000000000 0                                                                        00000000000000000 00000000000000000000000000000000000000000000000000000000000         00000000000000000000000         SSSSSSSSSSSSSSSSSSSSS
000000007725543251RNCARINA SOARES SILVA MOREIRA                                 8008867850412654278087JANDIRA SOARES SILVA MOREIRA                      F2005197921006     1BA000000000000000000000000000AV SAO GERALDO                          1733                       ALTO MARON               VITORIA DA CONQUISTA          45005092BA0706009967    SSP  26062013BA000000000000000000                                                                                                                                                                                                                                                                                                                                                                                                      
000000007725543252RNEST01000000       104007595000009989063300000000000                   400015012011 0000000000000000701062E4091501202000000000   00000   0000000000000000000000000   00000   000000000000000000000000000000000001611501202000000000000000000001501202000000      000000000000015012020000000     00000000000000000000000         00000000                                        000000000000000         00000000               0000 000000000000000000000000         00000000   0000000000000000000000000000000000000000000000000000000000000000000000000 0                                                                        00000000000000000 00000000000000000000000000000000000000000000000000000000000         00000000000000000000000         SSSSSSSSSSSSSSSSSSSSS
000000007724912541RNELIZANE DE SOUZA TELES SILVA                                9521599952017068413747BELINDA FERREIRA DE SOUZA                         F2702197821310     1BA000000000000000000000000000RUA MIGUEL DE CERVANTES                 25                         BOA VISTA                VITORIA DA CONQUISTA          45026070BA717579964     SSP  24012014BA000000000000000000                                                                                                                                                                                                                                                                                                                                                                                                      
000000007724912542RNEST01000000       104007595000009989063300000000000                   400015012011 0000000000000000701062E4091501202000000000   00000   0000000000000000000000000   00000   000000000000000000000000000000000001611501202000000000000000000001501202000000      000000000000015012020000000     00000000000000000000000         00000000                                        000000000000000         00000000               0000 000000000000000000000000         00000000   0000000000000000000000000000000000000000000000000000000000000000000000000 0                                                                        00000000000000000 00000000000000000000000000000000000000000000000000000000000         00000000000000000000000         SSSSSSSSSSSSSSSSSSSSS
000000007724455801RNLILIANA SOUZA AZEVEDO                                       0132657651811964107401LILIANA SOUZA AZEVEDO                             F2601198511208     1BA000000000000000000000000000RUA CLAUDIA BOTELHO                     670                        CANDEIAS                 VITORIA DA CONQUISTA          45028190BA0817825355    SSP  07032003BA000000000000000000                                                                                                                                                                                                                                                                                                                                                                                                      
000000007724455802RNEST01000000       104007595000009989063300000000000                   400015012011 0000000000000000701062E4091501202000000000   00000   0000000000000000000000000   00000   000000000000000000000000000000000001611501202000000000000000000001501202000000      000000000000015012020000000     00000000000000000000000         00000000                                        000000000000000         00000000               0000 000000000000000000000000         00000000   0000000000000000000000000000000000000000000000000000000000000000000000000 0                                                                        00000000000000000 00000000000000000000000000000000000000000000000000000000000         00000000000000000000000         SSSSSSSSSSSSSSSSSSSSS
000000007725745821RNSAULO SOUSA SILVA                                           0175631956112772942084CLEUSA ROCHA DE SOUZA SILVA                       M1908198411006     1BA000000000000000000000000000RUA FERNANDO MATOS                      94                         CENTRO                   VITORIA DA CONQUISTA          45000550BA963045610     SSP  08072013BA000000000000000000                                                                                                                                                                                                                                                                                                                                                                                                      
000000007725745822RNEST01000000       104007595000009989063300000000000                   400015012011 0000000000000000701062E4091501202000000000   00000   0000000000000000000000000   00000   000000000000000000000000000000000001611501202000000000000000000001501202000000      000000000000015012020000000     00000000000000000000000         00000000                                        000000000000000         00000000               0000 000000000000000000000000         00000000   0000000000000000000000000000000000000000000000000000000000000000000000000 0                                                                        00000000000000000 00000000000000000000000000000000000000000000000000000000000         00000000000000000000000         SSSSSSSSSSSSSSSSSSSSS
000000007726372881RNCLAUDIO MARCIO SILVA ROCHA                                  9239828656820631248964LAURITA ROSA DA SILVA                             M2103197911208     1SP000000000000000000000000000RUA B                                   200                        QUINTAS DO SUL           ITAPETINGA                    45700000BA0604192967    SSP  12122016BA000000000000000000                                                                                                                                                                                                                                                                                                                                                                                                      
000000007726372882RNEST01000000       104007595000009989063300000000000                   400015012011 0000000000000000701062E4091501202000000000   00000   0000000000000000000000000   00000   000000000000000000000000000000000001611501202000000000000000000001501202000000      000000000000015012020000000     00000000000000000000000         00000000                                        000000000000000         00000000               0000 000000000000000000000000         00000000   0000000000000000000000000000000000000000000000000000000000000000000000000 0                                                                        00000000000000000 00000000000000000000000000000000000000000000000000000000000         00000000000000000000000         SSSSSSSSSSSSSSSSSSSSS
000000007726372661RNJAMESON ABADE DOS SANTOS                                    0433381558416210917144ELIANE BITENCORTH SANTOS                          M2811199130905     1BA000000000000000000000000000RUA CARAVELAS                           96                         PATAGONIA                VITORIA DA CONQUISTA          45065590BA1528834950    SSP  04012011BA000000000000000000                                                                                                                                                                                                                                                                                                                                                                                                      
000000007726372662RNEST01000000       104007595000009989063300000000000                   400015012011 0000000000000000701062E4091501202000000000   00000   0000000000000000000000000   00000   000000000000000000000000000000000001611501202000000000000000000001501202000000      000000000000015012020000000     00000000000000000000000         00000000                                        000000000000000         00000000               0000 000000000000000000000000         00000000   0000000000000000000000000000000000000000000000000000000000000000000000000 0                                                                        00000000000000000 00000000000000000000000000000000000000000000000000000000000         00000000000000000000000         SSSSSSSSSSSSSSSSSSSSS
000000007726381121RNALINE MOREIRA FERRAZ DE ALMEIDA                             7788221058712786614068IVONETE ALVES MOREIRA DE ALMEIDA                  F1909197821310     1BA000000000000000000000000000RUA MANOEL JANUARIO DE ANDRADE          434                        RECREIO                  VITORIA DA CONQUISTA          45020540BA801605490     SSP  12062006BA000000000000000000                                                                                                                                                                                                                                                                                                                                                                                                      
000000007726381122RNEST01000000       104007595000009989063300000000000                   400015012011 0000000000000000701062E4091501202000000000   00000   0000000000000000000000000   00000   000000000000000000000000000000000001611501202000000000000000000001501202000000      000000000000015012020000000     00000000000000000000000         00000000                                        000000000000000         00000000               0000 000000000000000000000000         00000000   0000000000000000000000000000000000000000000000000000000000000000000000000 0                                                                        00000000000000000 00000000000000000000000000000000000000000000000000000000000         00000000000000000000000         SSSSSSSSSSSSSSSSSSSSS
000000007722803421RNGLEIDE MAGALI LEMOS PINHEIRO                                5286168655317059597008MARIA ZELIA LEMOS PINHEIRO                        F0507196911412     1BA000000000000000000000000000RUA ODILON T SANTOS                     127                        JEQUIEZINHO              JEQUIE                        45208433BA0441609303    SSP  02042018BA000000000000000000                                                                                                                                                                                                                                                                                                                                                                                                      
000000007722803422RNEST01000000       104007595000009989063300000000000                   400015012011 0000000000000000701062E4091501202000000000   00000   0000000000000000000000000   00000   000000000000000000000000000000000001611501202000000000000000000001501202000000      000000000000015012020000000     00000000000000000000000         00000000                                        000000000000000         00000000               0000 000000000000000000000000         00000000   0000000000000000000000000000000000000000000000000000000000000000000000000 0                                                                        00000000000000000 00000000000000000000000000000000000000000000000000000000000         00000000000000000000000         SSSSSSSSSSSSSSSSSSSSS
000000007723090721RNGENEROSA SOUSA RIBEIRO                                      6748468957217071729547EITA DE SOUSA SANTOS                              F0804197321412     1BA000000000000000000000000000RUA TELE SANTANA                        83                         BOA VISTA                VITORIA DA CONQUISTA          45026425BA0401472663    SSP  17031997BA000000000000000000                                                                                                                                                                                                                                                                                                                                                                                                      
000000007723090722RNEST01000000       104007595000009989063300000000000                   400015012011 0000000000000000701062E4091501202000000000   00000   0000000000000000000000000   00000   000000000000000000000000000000000001611501202000000000000000000001501202000000      000000000000015012020000000     00000000000000000000000         00000000                                        000000000000000         00000000               0000 000000000000000000000000         00000000   0000000000000000000000000000000000000000000000000000000000000000000000000 0                                                                        00000000000000000 00000000000000000000000000000000000000000000000000000000000         00000000000000000000000         SSSSSSSSSSSSSSSSSSSSS
000000007725423541RNJULIANA MENEZES DE MORAIS                                   9567086656812647981088ELIENE MENEZES DE MORAIS                          F2003197741208     1PE000000000000000000000000000RUA PAULO FILADELFO                     1667                       CANDEIAS                 VITORIA DA CONQUISta          45028355BA0750413085    SSP  19042011BA000000000000000000                                                                                                                                                                                                                                                                                                                                                                                                      
000000007725423542RNEST01000000       104007595000009989063300000000000                   400015012011 0000000000000000701062E4091501202000000000   00000   0000000000000000000000000   00000   000000000000000000000000000000000001611501202000000000000000000001501202000000      000000000000015012020000000     00000000000000000000000         00000000                                        000000000000000         00000000               0000 000000000000000000000000         00000000   0000000000000000000000000000000000000000000000000000000000000000000000000 0                                                                        00000000000000000 00000000000000000000000000000000000000000000000000000000000         00000000000000000000000         SSSSSSSSSSSSSSSSSSSSS
999999999999999999000000002                                                                                                                                                                                                                                                                                                                                                                                                                                                                                                                                                                                                                                                                                                                                                                       