000000000000000000SIAPEFITAESP00688UESB      072023                                                                                                                                                                                                                                                                                                                                                                                                                                                                                                                                                                                                                                                                                                                                               
000038000000123411BABENTO ANDRE ANTUNES                                         2568216948434985072495HELOISA LAIS CARLOS NUNES                         M2701198811112     1BA000000000000000000000000000RUAALTODAFAVELA                            735                     PIRANGA                  JUAZEIRO                      48901020BA225397948     SSP  15012000BA067671343012400000                                                                                                                                                                                                                                                                                                                                                                                                      
000038000000123412BAEST01000000       104007595000009989063300000000000                   400015012011 0000000000000000701062E4091501202000000000   00000   0000000000000000000000000   00000   000000000000000000000000000000000001611501202000000000000000000001501202000000      000000000000015012020000000     00000000000000000000000         00000000                                        000000000000000         00000000               0000 000000000000000000000000         00000000   0000000000000000000000000000000000000000000000000000000000000000000000000 0                                                                        00000000000000000 00000000000000000000000000000000000000000000000000000000000         00000000000000000000000         SSSSSSSSSSSSSSSSSSSSS
000038000009826521BAMARIO LUAN VINICIUS COSTA                                   6092085542350308087700MARIANA VANESSA RAYSSA                            M0901198911112     1BA000000000000000000000000000PRACAACU                                   925                     URUGUAI                  SALVADOR                      40450415BA289619749     ITEP 31032001BA016372041010800000                                                                                                                                                                                                                                                                                                                                                                                                      
000038000009826522BAEST01000000       104007595000009989062500000000000                   200030032013 0000000000000000701200D4081301201400000000   00000   0000000000000000000000000   00000   000000000000000000000000000000000001851301201400000000000000000001301201400000      000000000000013012014000000     00000000000000000000000         00000000                                        000000000000000         00000000               0000 000000000000000000000000         00000000   0000000000000000000000000000000000000000000000000000000000000000000000000 0                                                                        00000000000000000 00000000000000000000000000000000000000000000000000000000000         00000000000000000000000         SSSSSSSSSSSSSSSSSSSSS
999999999999999999000000002                                                                                                                                                                                                                                                                                                                                                                                                                                                                                                                                                                                                                                                                                                                                                                       